{
    "contractName": "Tasks",
    "abi": [
        {
            "inputs": [],
            "stateMutability": "nonpayable",
            "type": "constructor"
        },
        {
            "inputs": [
                {
                    "internalType": "string",
                    "name": "_taskDescription",
                    "type": "string"
                },
                {
                    "internalType": "string",
                    "name": "_proofDescription",
                    "type": "string"
                },
                {
                    "internalType": "string",
                    "name": "_communications",
                    "type": "string"
                },
                {
                    "internalType": "uint256",
                    "name": "_bounty",
                    "type": "uint256"
                },
                {
                    "internalType": "uint256",
                    "name": "_duration",
                    "type": "uint256"
                }
            ],
            "name": "addTask",
            "outputs": [],
            "stateMutability": "payable",
            "type": "function"
        },
        {
            "inputs": [
                {
                    "internalType": "uint256",
                    "name": "_id",
                    "type": "uint256"
                }
            ],
            "name": "annulTask",
            "outputs": [],
            "stateMutability": "nonpayable",
            "type": "function"
        },
        {
            "inputs": [
                {
                    "internalType": "uint16",
                    "name": "percent",
                    "type": "uint16"
                }
            ],
            "name": "changeLockRate",
            "outputs": [],
            "stateMutability": "nonpayable",
            "type": "function"
        },
        {
            "inputs": [
                {
                    "internalType": "uint256",
                    "name": "_id",
                    "type": "uint256"
                }
            ],
            "name": "completeTask",
            "outputs": [],
            "stateMutability": "payable",
            "type": "function"
        },
        {
            "inputs": [
                {
                    "internalType": "uint256",
                    "name": "_id",
                    "type": "uint256"
                }
            ],
            "name": "getTaskInfo",
            "outputs": [
                {
                    "internalType": "address payable",
                    "name": "",
                    "type": "address"
                },
                {
                    "internalType": "address payable",
                    "name": "",
                    "type": "address"
                },
                {
                    "internalType": "string",
                    "name": "",
                    "type": "string"
                },
                {
                    "internalType": "string",
                    "name": "",
                    "type": "string"
                },
                {
                    "internalType": "string",
                    "name": "",
                    "type": "string"
                },
                {
                    "internalType": "uint256",
                    "name": "",
                    "type": "uint256"
                },
                {
                    "internalType": "uint256",
                    "name": "",
                    "type": "uint256"
                },
                {
                    "internalType": "uint256",
                    "name": "",
                    "type": "uint256"
                },
                {
                    "internalType": "uint256",
                    "name": "",
                    "type": "uint256"
                },
                {
                    "internalType": "uint8",
                    "name": "",
                    "type": "uint8"
                }
            ],
            "stateMutability": "view",
            "type": "function"
        },
        {
            "inputs": [],
            "name": "getTaskLength",
            "outputs": [
                {
                    "internalType": "uint256",
                    "name": "",
                    "type": "uint256"
                }
            ],
            "stateMutability": "view",
            "type": "function"
        },
        {
            "inputs": [
                {
                    "internalType": "uint256",
                    "name": "_id",
                    "type": "uint256"
                }
            ],
            "name": "lockTask",
            "outputs": [],
            "stateMutability": "payable",
            "type": "function"
        },
        {
            "inputs": [
                {
                    "internalType": "address",
                    "name": "_address",
                    "type": "address"
                }
            ],
            "name": "revokeOwnership",
            "outputs": [],
            "stateMutability": "nonpayable",
            "type": "function"
        },
        {
            "inputs": [
                {
                    "internalType": "uint256",
                    "name": "_id",
                    "type": "uint256"
                }
            ],
            "name": "setBackToActive",
            "outputs": [],
            "stateMutability": "nonpayable",
            "type": "function"
        }
    ],
    "bytecode": "60806040526001805473874069fa1eb16d44d622f2e0ca25eea172369bc16001600160a01b0319918216811790925560028054909116909117905560006003556004805465ffffffffffff19166503020100000f17905534801561006257600080fd5b50600080546001600160a01b03191633179055611285806100846000396000f3fe6080604052600436106100865760003560e01c8063a633cd0411610059578063a633cd04146100f6578063d0d2f5c914610116578063d1a1b99914610136578063e1e295581461016c578063feb79db91461017f57600080fd5b806309bb4bc71461008b5780632d9f6ea1146100a05780635f4c36bb146100b357806383cfbd7f146100d6575b600080fd5b61009e610099366004610eb9565b61019f565b005b61009e6100ae366004610f75565b610362565b3480156100bf57600080fd5b506003546040519081526020015b60405180910390f35b3480156100e257600080fd5b5061009e6100f136600461100f565b61058a565b34801561010257600080fd5b5061009e610111366004610eb9565b610619565b34801561012257600080fd5b5061009e610131366004610eb9565b610813565b34801561014257600080fd5b50610156610151366004610eb9565b6108ed565b6040516100cd9a99989796959493929190611085565b61009e61017a366004610eb9565b610b3b565b34801561018b57600080fd5b5061009e61019a36600461110d565b610d1c565b6004546000828152600560205260409020600901548291640100000000900460ff90811691161415806101f3575060045460008281526005602052604090206009015460ff908116600160281b9092041614155b6101fc57600080fd5b600454600083815260056020526040902060090154839162010000900460ff90811691161461022a57600080fd5b60008381526005602052604090205483906001600160a01b031633141561025057600080fd5b600254600085815260056020526040908190206008015490516323b872dd60e01b815233600482015230602482015260448101919091526001600160a01b03909116906323b872dd90606401602060405180830381600087803b1580156102b657600080fd5b505af11580156102ca573d6000803e3d6000fd5b505050506040513d601f19601f820116820180604052508101906102ee9190611131565b6103135760405162461bcd60e51b815260040161030a90611153565b60405180910390fd5b505060045460009283526005602052604090922060098101805460ff191660ff630100000090950494909416939093179092555042600782015560010180546001600160a01b03191633179055565b6002546040516323b872dd60e01b8152336004820152306024820152604481018490526001600160a01b03909116906323b872dd90606401602060405180830381600087803b1580156103b457600080fd5b505af11580156103c8573d6000803e3d6000fd5b505050506040513d601f19601f820116820180604052508101906103ec9190611131565b6104085760405162461bcd60e51b815260040161030a90611153565b60045460009061042a9060649061042490869061ffff16610d4b565b90610d86565b9050600061043a83610e106111a0565b6040805161014081018252338152600060208083018281528385018d8152606085018d9052608085018c905260a085018b905260c0850187905260e08501889052610100850189905260045462010000900460ff1661012086015260035484526005835294909220835181546001600160a01b03199081166001600160a01b03928316178355935160018301805490951691161790925592518051949750919390926104ed926002850192910190610e20565b5060608201518051610509916003840191602090910190610e20565b5060808201518051610525916004840191602090910190610e20565b5060a0820151600582015560c0820151600682015560e082015160078201556101008201516008820155610120909101516009909101805460ff191660ff9092169190911790556003805490600061057c836111bf565b919050555050505050505050565b6000546001600160a01b031633146105a157600080fd5b6001600160a01b0381166105f75760405162461bcd60e51b815260206004820152601c60248201527f4f776e65722063616e6e6f74206265205a65726f206164647265737300000000604482015260640161030a565b600080546001600160a01b0319166001600160a01b0392909216919091179055565b60008181526005602052604090205481906001600160a01b031661067f5760405162461bcd60e51b815260206004820152601860248201527f54686973207461736b20646f6573206e6f742065786973740000000000000000604482015260640161030a565b60008281526005602052604090205482906001600160a01b031633146106a457600080fd5b6004546000848152600560205260409020600901548491640100000000900460ff90811691161415806106f8575060045460008281526005602052604090206009015460ff908116600160281b9092041614155b61070157600080fd5b600454600085815260056020526040902060090154859162010000900460ff90811691161461072f57600080fd5b600085815260056020819052604091829020600254815492820154935163a9059cbb60e01b81526001600160a01b0393841660048201526024810194909452909291169063a9059cbb90604401602060405180830381600087803b15801561079657600080fd5b505af11580156107aa573d6000803e3d6000fd5b505050506040513d601f19601f820116820180604052508101906107ce9190611131565b6107ea5760405162461bcd60e51b815260040161030a90611153565b6004546009909101805460ff191660ff600160281b909304929092169190911790555050505050565b60008181526005602052604090205481906001600160a01b0316331461083857600080fd5b6004546000838152600560205260409020600901548391640100000000900460ff908116911614158061088c575060045460008281526005602052604090206009015460ff908116600160281b9092041614155b61089557600080fd5b61089e83610da8565b1561008657600454600084815260056020526040812060098101805460ff191660ff620100009095049490941693909317909255600782015560010180546001600160a01b0319169055505050565b6000806060806060600080600080600080600560008d815260200190815260200160002090508060000160009054906101000a90046001600160a01b03168160010160009054906101000a90046001600160a01b031682600201836003018460040185600501548660060154876007015488600801548960090160009054906101000a900460ff16878054610981906111da565b80601f01602080910402602001604051908101604052809291908181526020018280546109ad906111da565b80156109fa5780601f106109cf576101008083540402835291602001916109fa565b820191906000526020600020905b8154815290600101906020018083116109dd57829003601f168201915b50505050509750868054610a0d906111da565b80601f0160208091040260200160405190810160405280929190818152602001828054610a39906111da565b8015610a865780601f10610a5b57610100808354040283529160200191610a86565b820191906000526020600020905b815481529060010190602001808311610a6957829003601f168201915b50505050509650858054610a99906111da565b80601f0160208091040260200160405190810160405280929190818152602001828054610ac5906111da565b8015610b125780601f10610ae757610100808354040283529160200191610b12565b820191906000526020600020905b815481529060010190602001808311610af557829003601f168201915b505050505095509a509a509a509a509a509a509a509a509a509a50509193959799509193959799565b60008181526005602052604090205481906001600160a01b03163314610b6057600080fd5b6004546000838152600560205260409020600901548391640100000000900460ff9081169116141580610bb4575060045460008281526005602052604090206009015460ff908116600160281b9092041614155b610bbd57600080fd5b60045460008481526005602052604090206009015460ff90811663010000009092041614610bea57600080fd5b600083815260056020819052604082206008810154910154610c0c9190611215565b6000858152600560205260409020600101549091506001600160a01b0316610c3357600080fd5b6002546000858152600560205260409081902060010154905163a9059cbb60e01b81526001600160a01b0391821660048201526024810184905291169063a9059cbb90604401602060405180830381600087803b158015610c9357600080fd5b505af1158015610ca7573d6000803e3d6000fd5b505050506040513d601f19601f82011682018060405250810190610ccb9190611131565b610ce75760405162461bcd60e51b815260040161030a90611153565b5050600454600092835260056020526040909220600901805464010000000090930460ff1660ff199093169290921790915550565b6000546001600160a01b03163314610d3357600080fd5b6004805461ffff191661ffff92909216919091179055565b600082610d5a57506000610d80565b6000610d6683856111a0565b905082610d73858361122d565b14610d7d57600080fd5b90505b92915050565b6000808211610d9457600080fd5b6000610da0838561122d565b949350505050565b60045460008281526005602052604081206009015490916301000000900460ff908116911614610dd757600080fd5b600082815260056020526040902060068101546007909101544291610dfc9190610e04565b111592915050565b600080610e118385611215565b905083811015610d7d57600080fd5b828054610e2c906111da565b90600052602060002090601f016020900481019282610e4e5760008555610e94565b82601f10610e6757805160ff1916838001178555610e94565b82800160010185558215610e94579182015b82811115610e94578251825591602001919060010190610e79565b50610ea0929150610ea4565b5090565b5b80821115610ea05760008155600101610ea5565b600060208284031215610ecb57600080fd5b5035919050565b634e487b7160e01b600052604160045260246000fd5b600082601f830112610ef957600080fd5b813567ffffffffffffffff80821115610f1457610f14610ed2565b604051601f8301601f19908116603f01168101908282118183101715610f3c57610f3c610ed2565b81604052838152866020858801011115610f5557600080fd5b836020870160208301376000602085830101528094505050505092915050565b600080600080600060a08688031215610f8d57600080fd5b853567ffffffffffffffff80821115610fa557600080fd5b610fb189838a01610ee8565b96506020880135915080821115610fc757600080fd5b610fd389838a01610ee8565b95506040880135915080821115610fe957600080fd5b50610ff688828901610ee8565b9598949750949560608101359550608001359392505050565b60006020828403121561102157600080fd5b81356001600160a01b0381168114610d7d57600080fd5b6000815180845260005b8181101561105e57602081850181015186830182015201611042565b81811115611070576000602083870101525b50601f01601f19169290920160200192915050565b6001600160a01b038b811682528a166020820152610140604082018190526000906110b28382018c611038565b905082810360608401526110c6818b611038565b905082810360808401526110da818a611038565b60a0840198909852505060c081019490945260e084019290925261010083015260ff166101209091015295945050505050565b60006020828403121561111f57600080fd5b813561ffff81168114610d7d57600080fd5b60006020828403121561114357600080fd5b81518015158114610d7d57600080fd5b60208082526018908201527f436f756c64206e6f742064697362757273652066756e64730000000000000000604082015260600190565b634e487b7160e01b600052601160045260246000fd5b60008160001904831182151516156111ba576111ba61118a565b500290565b60006000198214156111d3576111d361118a565b5060010190565b600181811c908216806111ee57607f821691505b6020821081141561120f57634e487b7160e01b600052602260045260246000fd5b50919050565b600082198211156112285761122861118a565b500190565b60008261124a57634e487b7160e01b600052601260045260246000fd5b50049056fea2646970667358221220dd217fe7d3feaf8c3ddc0a933b6f57ee89c342f62cf003a92983ff92d6afe1da64736f6c63430008090033",
    "sourcePath": "c:/Users/PC/Desktop/work/dacade/celoTask/contract/tasks.sol",
    "compiler": {
        "name": "solc",
        "version": "0.8.9+commit.e5eed63a"
    },
    "functionHashes": {
        "addTask(string,string,string,uint256,uint256)": "2d9f6ea1",
        "annulTask(uint256)": "a633cd04",
        "changeLockRate(uint16)": "feb79db9",
        "completeTask(uint256)": "e1e29558",
        "getTaskInfo(uint256)": "d1a1b999",
        "getTaskLength()": "5f4c36bb",
        "lockTask(uint256)": "09bb4bc7",
        "revokeOwnership(address)": "83cfbd7f",
        "setBackToActive(uint256)": "d0d2f5c9"
    },
    "gasEstimates": {
        "creation": {
            "codeDepositCost": "948200",
            "executionCost": "102928",
            "totalCost": "1051128"
        },
        "external": {
            "addTask(string,string,string,uint256,uint256)": "infinite",
            "annulTask(uint256)": "infinite",
            "changeLockRate(uint16)": "26732",
            "completeTask(uint256)": "infinite",
            "getTaskInfo(uint256)": "infinite",
            "getTaskLength()": "2314",
            "lockTask(uint256)": "infinite",
            "revokeOwnership(address)": "26782",
            "setBackToActive(uint256)": "75651"
        },
        "internal": {
            "_lockHasExpired(uint256)": "8809"
        }
    }
}